:10058D00060102030405303132333435363738393C
:10059D0041424344454600494E5055542050415325
:1005AD0053574F5244004F50454E004552524F52F3
:1005BD00004E45572050415353574F5244004F5012
:1005CD00454E20204F5220204348414E4745005371
:1005DD0055434345535346554C00544845205041CF
:1005ED005353574F524420495300444946464552B0
:1005FD00454E542100494E50555420414741494ED6
:10060D000041626F757420546F204C6F636B2E2EFA
:0F061D002E0054454D50455241545552453A0018
:07000300050E30302E300025
:1004EA007509017F0A120B958F08E508701F7D01B7
:1004FA007F0A120C2BE4F521E52190058D93FDAFBF
:10050A0021120C2B0521E521C3940740EB12040D9F
:0E051A00C200120A77E4F522E5226403703273
:10052800120B44120BE1E4F5237F08120C54120E4F
:10053800137F0C120C54120E130523E523C39402E7
:1005480040E77F01120C54120E41120C0775090185
:0205580080C25F
:10055A00E5226011120AA0120E4112098B7F0112C4
:10056A000C54120A77120A4DE50D600280A4120992
:10057A00C0920005223000A0120B1B120E0675094C
:03058A0001808F5E
:100C0700E4F524D2B7E524701AA2B733F52570F5B9
:100C1700120E201207F3A2B7E433F52560F8752406
:030C27000180E267
:010C2A0022A7
:10079500E4F525120A4DAD0BE4FF120C2B7524016F
:1007A500E524D3950B501074122524F8E6FDAF24EB
:1007B500120C2B052480E9120AF2120E13120A4DAF
:1007C5001209C0E433F5257F01120C54E525701498
:1007D500120E4112089B12098B120E137F01120C87
:0E07E50054120CABE52560AB120AC9020E20BF
:0A09C000E4FF120B95EF650B7025A4
:1009CA00752601E526D3950B501BAF26120B958F82
:1009DA002774122526F8E6B5270BE526B50B02D3B0
:0509EA0022052680DE5D
:0109EF00C344
:0109F00022E4
:100C2B008F268D27D2A0D2A1120D8F7FA0120A2161
:100C3B00AF26120A21AF27120A21120DB07F0A7EAE
:040C4B0000020D1482
:020B95008F28A7
:100B9700D2A0D2A1120D8F7FA0120A21AF28120A6C
:100BA70021120D8F7FA1120A21120D408F29120DDC
:030BB700B0AF29B3
:010BBA002218
:100D4000E4FED2A1EF25E0FFA2A0E4334207C2A156
:040D50000EBE08EEDD
:010D5400227C
:100A2100E4FEEF3392A000D2A100000000C2A1EFCA
:100A310025E0FF0EBE08EBD2A000000000D2A1000D
:0B0A4100000000A2A09201C2A1A201CF
:010A4C002287
:100D8F00D2A0D2A100000000C2A000000000C2A1AA
:010D9F002231
:0F0DB000C2A000000000D2A100000000D2A022CB
:100A4D00E4F50BC202120DEA751B01E4F51C200240
:100A5D0013120DA08F0DE50D6005120DF880051216
:0A0A6D00032E80EAE4F51BC28C2280
:0D0E0600C2022002051209F180F8020CC69C
:10091B00E50CB40A14E50B602FE4F51C120C8E15D4
:10092B000B7413250BF8760A22E50C640B6005E5B6
:10093B000BB40803D20222D28CE4F51C120BBB744D
:09094B0013250BF8A60C050B2284
:100CC600E50CB40C0912084C120E411207F3E50CA0
:0A0CD600B40D06120954120795220E
:10032E0075B0FE85B00A530AF0E50A64F0603B1220
:10033E000E41E50A64F06032E50A2490601B24C089
:10034E00601224E0600924F07012E4F50C800D7543
:10035E000C018008750C028003750C0385B00A53DE
:10036E000AF0E50AB4F0F512091B75B0FD85B00A66
:10037E00530AF0E50A64F0603B120E41E50A64F0A0
:10038E006032E50A2490601B24C0601224E06009EC
:10039E0024F07012750C04800D750C058008750C18
:1003AE00068003750C0785B00A530AF0E50AB4F00F
:1003BE00F512091B75B0FB85B00A530AF0E50A6405
:1003CE00F0603B120E41E50A64F06032E50A2490BB
:1003DE00601B24C0601224E0600924F07012750CBA
:1003EE0008800D750C098008750C0A8003750C0BBE
:0F03FE0085B00A530AF0E50AB4F0F512091B2284
:1009F10075B0F785B00A530AF0E50A64F060201279
:100A01000E41E50A64F06017E50A2430600924F01C
:100A11007008750C0C8003750C0DE4F5B0D2022240
:1006B80075B0FE85B00A530AF0E50A64F0601712B7
:1006C8000E41E50A64F06003E4F50985B00A530AAF
:1006D800F0E50AB4F0F575B0FD85B00A530AF0E507
:1006E8000A64F06017120E41E50A64F06003E4F54D
:1006F8000985B00A530AF0E50AB4F0F575B0FB8530
:10070800B00A530AF0E50A64F06017120E41E50AD0
:1007180064F06003E4F50985B00A530AF0E50AB409
:03072800F0F522C7
:100D5500C2B5D2B6D2B400000000E580339201C21C
:030D6500B4A20134
:010D68002268
:050C4F00E50B24C0FFCD
:100C5400120D5540FBC2B5C2B6C2B400008F80006D
:0C0C6400000000D2B400000000C2B42266
:100CE000120D5540FBD2B5C2B6C2B48F80000000D1
:0A0CF00000D2B400000000C2B422DC
:1008DC00120E38120E38120E387F38120C54120EBB
:1008EC0038120E387F38120C54120E38120E387F14
:1008FC0038120C54120E387F0C120C54120E387F16
:0F090C0006120C54120E387F01120C54020E38D2
:100A7700120D69C2A6C2A7120D70120D70120D7069
:100A87001208DC7F80120C54E4FEEE9005A493FF5D
:080A97006006120CE00E80F273
:010A9F002234
:100AA000120D69C2A6C2A7120D70120D70120D7040
:100AB0001208DC7F80120C54E4FEEE9005B893FF20
:080AC0006006120CE00E80F24A
:010AC800220B
:100AC900120D69C2A6C2A7120D70120D70120D7017
:100AD9001208DC7F82120C54E4FEEE9005DC93FFD1
:080AE9006006120CE00E80F221
:010AF10022E2
:100AF200120D69C2A6C2A7120D70120D70120D70EE
:100B02001208DC7F80120C54E4FEEE90060293FF82
:080B12006006120CE00E80F2F7
:010B1A0022B8
:10089B00120D69C2A6C2A7120D70120D70120D7047
:1008AB001208DC7F80120C54E4FEEE9005E793FFF8
:1008BB006006120CE00E80F2120E417FC3120C5434
:1008CB00E4FEEE9005F793FF6006120CE00E80F24B
:0108DB0022FA
:100B1B00120D69C2A6C2A7120D70120D70120D70C4
:100B2B001208DC7F80120C54E4FEEE9005CB93FF91
:080B3B006006120CE00E80F2CE
:010B4300228F
:10084C00E4F5247FC2120C547F5E120CE0120E13DE
:10085C00E4F5257F08120C54120E137F0C120C5465
:10086C00120E130525E525C3940240E77F01120CF7
:10087C0054120E417F86120C547F06120C54E52440
:0E088C009005B393FF6007120CE0052480F086
:01089A00223B
:10095400E4F5247FCD120C547F5E120CE0120E13CA
:10096400E4F5257F08120C54120E137F0C120C545C
:10097400120E130525E525C3940240E77F01120CEE
:0709840054120E41020CABFE
:100CAB00E4FE7F80120C547F06120C54EE9005BEAE
:0A0CBB0093FF6006120CE00E80F2B9
:010CC500220C
:100B4400120D69C2A6C2A7120D70120D70120D709B
:100B54001208DC7F80120C54E4FEEE90060E93FF24
:080B64006006120CE00E80F2A5
:010B6C002266
:100BBB00120D69C2A6C2A7120D70120D70120D7024
:100BCB00120C4F120E38120C4F120E387F14120CDF
:060BDB00547F2A020CE029
:100C8E00120D69C2A6C2A7120D70120D70120D7050
:0D0C9E007F10120C54120C4F7F20020CE04E
:1007F3007FFE8F90120E417FFC8F90120E417FF887
:100803008F90120E417FE08F90C2A3120E417FC0E2
:100813008F90D2A3120E417F808F90120E41E4FF7E
:10082300F590120E417FFF8F90120E41E4FFF59079
:10083300120E417FFF8F90C2A3120E41E4FFF59089
:08084300D2A3120DBF7590FF56
:01084B00228A
:100BE100C2A3E4F525E4F524852490120E41752471
:100BF100FF852490120E410525E525C3942840E583
:050C0100120E41D2A318
:010C060022CB
:10098B00C2A3E4F52875270F852790120E41752712
:10099B00FF852790120E410528E528C3940540E5F5
:1009AB0075270F852790120E13120E207527FF85C2
:0409BB002790D2A30C
:0109BF002215
:100D1400EF1FAA0670011E4A600BE4FDEDC3947830
:050D240050EE0D80F708
:010D290022A7
:0D0DCE00EFD3940040077EC8DEFE1F80F3C7
:010DDB0022F5
:070D6900E4F580D2A6C2A749
:0C0D70007F017E8E7D02DDFEDEFADFF6E4
:010D7C002254
:080E38007F137E82DEFEDFFA6B
:010E4000228F
:080E41007FAD7E8FDEFEDFFABB
:010E49002286
:0C0E13007F177E987D46DDFEDEFADFF6DC
:010E1F0022B0
:0C0E20007F7F7E607D3CDDFEDEFADFF6A9
:010E2C0022A3
:100D7D007FE57ED67D18DDFEDEFADFF67F01DFFE34
:010D8D000065
:010D8E002242
:0D0DDC007FBF7EBD7D89DDFEDEFADFF60003
:010DE90022E7
:0E0DBF007FA57E647D96DDFEDEFADFF6000085
:010DCD002203
:100DA000E51CB43C08E4F51CF51B7F01227F002202
:0E0DEA00758901758C3C758AB0D2AFD2A922F2
:03000B00020D2AB9
:100D2A00C0E0C0D0758C3C758AB0E51BB4010205E1
:060D3A001CD0D0D0E03215
:0E0DF800E4F590C2A3120E20D2A37590012242
:0B0E2D00EF1FAC0670011E4C70F62297
:100B6D00E4FDD2A27F08FE120E2DC2A27F507E00A0
:100B7D00120E2DD2A27F0E7E00120E2DA2A2E433F4
:080B8D00FD7F147E00020E2D15
:100C7000E4FB7D08C2A2EBC313FBD2A230A2034364
:0D0C800003807F047E00120E2DDDE9AF031E
:010C8D002244
:020CFA00AD0744
:100CFC007B08C2A2ED1392A27F057E00120E2DD2AC
:070D0C00A2EDC313FDDBEBB8
:010D130022BD
:10072B00E4FAFFFDFCF52AF529F528F527120B6DE8
:10073B007FCC120CFA7F44120CFA120B6D7FCC1289
:10074B000CFA7FBE120CFA120C70AA07120C70ADC9
:10075B0007EDFCEAFDE4120211E4FBFA7980783D27
:10076B001201068F2A8E298D288C27E4FFFE7D200F
:10077B007C41AB2AAA29A928A827120106E4FBFA77
:09078B00F9783F12001512024A30
:010794002242
:10040D00C2AF120D69C2A6C2A7120D70120D7012E5
:10041D000D701208DC7580FF7F06120C547F82125E
:10042D000C54E4F524E52490061F93FF6007120C8D
:10043D00E0052480F0E50970030204E912072B8E14
:10044D00258F267FC2120C54AE25AF267C007D640D
:10045D001202CB74932FF58274053EF583E493F568
:10046D000EAE25AF267C007D641202CB7E007F0A86
:10047D00CFCDCFCECCCE1202CB74932FF582740597
:10048D003EF583E493F50FAE25AF267C007D0A1271
:10049D0002CB74932DF58274053CF583E493F5112D
:1004AD00E4F524740E2524F8E6FF120CE00524E58E
:1004BD0024C3940440ED7FDF120CE07F43120CE067
:1004CD007FC2120C541206B8D3E526942CE5259460
:0C04DD0001500302044212098B02044289
:0104E90022F0
:10000E000202B6E86480F8E933E83360110460F068
:10001E00ED33EC337009E8FCE9FDEAFEEBFF220458
:10002E0060DED3EB9FEA9EE99DE8C2E78CF0C2F753
:10003E0095F0400CE8CCF8E9CDF9EACEFAEBCFFB1F
:10004E0012028185D0F05804700320D5B3E80470F5
:10005E00075002B2D50202C092D5EC0460F7E4CC90
:10006E00C0E0C398F8603B94186008400DD0E0FBE8
:10007E00020298E4FBFAC9FC8028E830E406E4C9E1
:10008E00FBE4CAFCE830E305E4C9CACBFCE854073C
:10009E006010F8C3E913F9EA13FAEB13FBEC13FC47
:1000AE00D8F130F52FC3E49CFCEF9BFFEE9AFEEDEA
:1000BE0099FDD0E0FBEF4E4D4C701222DB03020295
:1000CE00BDEC2CFCEF33FFEE33FEED33FDED30E7F0
:1000DE00EB020298EF2BFFEE3AFEED39FDD0E0FB7E
:1000EE0050130BBB00030202C0ED13FDEE13FEEF27
:0800FE0013FFEC13FC02029851
:10010600EC4D6011E8497017ED33EC3304600DE4F3
:10011600FCFFFEFD22E933E8330470F80202B61252
:10012600028158046009E4CC248150062850090253
:1001360002C02840030202BDC0E0EB4A7044B98009
:1001460006D0E0FB0202ACEF4E701CBD8008EBFF50
:10015600EAFEE9FD80EBE98DF0A4FEE5F00201EF91
:10016600E9CDF9EAFEEBFFEF89F0A4FCE5F0CE89D4
:10017600F0A42EFFE435F0CD89F0A42DFEE435F091
:100186008067EF4E7005BD80D780C3EF8BF0A4ACBF
:10019600F0EE8BF0A42CFCE435F0F8EF8AF0A42CFA
:1001A600E5F038FCE433CB8DF0A42CFCE5F03BF80D
:1001B600EE8AF0A42CFCE5F038F8E433CF89F0A4FD
:1001C6002CFCE5F038CF3400CE89F0A42FFFE5F003
:1001D6003EFEE433C98DF0A42EFEE5F039CD8AF05B
:1001E600A42FFFE5F03EFEE43DFD33D0E0FB5007D3
:1001F6000BBB000F0202C0EC2CFCEF33FFEE33FE0C
:06020600ED33FD02029839
:10020C0075F020800E75F010800575F0087D007E6D
:10021C00007F003392D530D503120320EC3340100D
:10022C00EF33FFEE33FEED33FDEC33FCD5F0ED2276
:0E023C00E5F0247EA2D513CC92E7CDCEFF22B2
:10024A00EDD2E7CD33EC3392D524814006E4FFFEAC
:10025A00FDFC22FCE4CFCECDCC24E0501174FF800B
:10026A00EDC3CC13CCCD13CDCE13CECF13CF0470A8
:07027A00F030D5DE02032085
:10028100E9D2E7C933E833F892D5EDD2E7CD33ECC3
:0702910033FC5002B2D5223C
:10029800EC30E7100FBF000C0EBE00080DBD0004C7
:1002A8000BEB6014A2D5EB13FCED92E7FD2274FF73
:1002B800FCFDFEFF22E480F8A2D574FF13FC7D80CC
:0302C800E480EFE0
:0300000002062CC9
:0C062C00787FE4F6D8FD75812A02067381
:1002CB00BC000BBE0029EF8DF084FFADF022E4CC17
:1002DB00F875F008EF2FFFEE33FEEC33FCEE9DECE0
:1002EB00984005FCEE9DFE0FD5F0E9E4CEFD22ED26
:1002FB00F8F5F0EE8420D21CFEADF075F008EF2F70
:10030B00FFED33FD4007985006D5F0F222C398FD60
:05031B000FD5F0EA22FD
:0E032000C3E49FFFE49EFEE49DFDE49CFC22EE
:100638000204EAE493A3F8E493A34003F68001F2EA
:1006480008DFF48029E493A3F85407240CC8C333C3
:10065800C4540F4420C8834004F456800146F6DF92
:10066800E4800B0102040810204080900003E47E1F
:10067800019360BCA3FF543F30E509541FFEE49387
:10068800A360010ECF54C025E060A840B8E493A34E
:10069800FAE493A3F8E493A3C8C582C8CAC583CA79
:1006A800F0A3C8C582C8CAC583CADFE9DEE780BE31
:01000A0000F5
:00000001FF
